:100000000C945C000C9479000C9479000C947900A9
:100010000C9479000C9479000C9479000C9479007C
:100020000C9479000C9479000C9479000C947B006A
:100030000C9479000C9479000C9479000C9479005C
:100040000C9479000C9479000C94DC0D0C947900DC
:100050000C9479000C9479000C9479000C9479003C
:100060000C9479000C9479005469656D706F3D2093
:100070002020206D696E20200054656D705B7370C8
:100080005D3D202020204320200054703D20202072
:1000900043205473703D20202043004F4646004FBC
:1000A0004E2000743D2020203A2020732054433DF0
:1000B000202020004F4E200011241FBECFEFD8E09B
:1000C000DEBFCDBF11E0A0E0B1E0EAEAF2E202C09B
:1000D00005900D92AC32B107D9F722E0ACE2B1E065
:1000E00001C01D92AB36B207E1F70E94050E0C94D9
:1000F00053110C9400001F920F920FB60F9211240F
:100100002F933F934F935F936F937F938F939F931F
:10011000AF93BF93EF93FF9380912F018160809302
:100120002F0180912D0184FF04C080912E010E9437
:100130003E0DFF91EF91BF91AF919F918F917F9174
:100140006F915F914F913F912F910F900FBE0F9044
:100150001F901895CF9380913301909134010196AF
:100160008233910540F4909334018093330180E011
:1001700090E0CF91089510923401109233010E94C3
:100180000B0BC82F25E02A95F1F700000E94E90A21
:100190002C2FCC0F330B29513109821B930B97FF66
:1001A0000AC010923F01109240011092410110923A
:1001B000420181E0DDCF883E23E092076CF080E0D1
:1001C00090ECA9E7B4E480933F0190934001A093A1
:1001D0004101B0934201EDCFBC01990F880B990BFF
:1001E0000E94A80F60933F017093400180934101EA
:1001F00090934201DECFEF92FF920F931F93CF9324
:10020000DF93CDB7DEB72A970FB6F894DEBF0FBEE7
:10021000CDBF7C018B014AE0BE016F5F7F4F0E9422
:10022000E41061E271E0C8010E94CE108AE0E81695
:10023000F104B4F441E050E0BE016F5F7F4FC801AC
:1002400002960E94D5102A960FB6F894DEBF0FBE14
:10025000CDBFDF91CF911F910F91FF90EF90089547
:1002600084E6E816F10444F442E050E0BE016F5F1A
:100270007F4FC8010196E5CF43E050E0BE016F5FBC
:100280007F4FC801DECFCF93DF93CDB7DEB72A977C
:100290000FB6F894DEBF0FBECDBFBE016F5F7F4FBC
:1002A0000E94FB0083EC0E943E0987EC90E00197DE
:1002B000F1F700C00000CE0101960E94C4092A9601
:1002C0000FB6F894DEBF0FBECDBFDF91CF9108957A
:1002D000CF93DF93CDB7DEB72A970FB6F894DEBF82
:1002E0000FBECDBFBE016F5F7F4F082E000C990B74
:1002F0000E94FB0083E80E943E0987EC90E0019792
:10030000F1F700C00000CE0101960E94C4092A96B0
:100310000FB6F894DEBF0FBECDBFDF91CF91089529
:10032000CF93DF93CDB7DEB72A970FB6F894DEBF31
:100330000FBECDBFBE016F5F7F4F082E000C990B23
:100340000E94FB008AE80E943E0987EC90E001973A
:10035000F1F700C00000CE0101960E94C4092A9660
:100360000FB6F894DEBF0FBECDBFDF91CF910895D9
:10037000CF93DF93CDB7DEB72A970FB6F894DEBFE1
:100380000FBECDBF0E94700FCB01BE016F5F7F4FCC
:100390000E94FB0083EC0E943E0987EC90E00197ED
:1003A000F1F700C00000CE0101960E94C4092A9610
:1003B0000FB6F894DEBF0FBECDBFDF91CF91089589
:1003C00080912D0180FD02C080E0089580913D0163
:1003D00090913E010196823391052CF490933E0159
:1003E00080933D01F1CF10923E0110923D0180912A
:1003F0003A018F5F8C3324F480933A0181E00895B1
:1004000010923A0180913B0190913C010196883E07
:1004100023E0920734F490933C0180933B0181E107
:10042000089510923C0110923B01F9CFEAE3F1E00C
:10043000148213821082128211820895CF92DF9269
:10044000EF92FF920F931F93CF93DF93CDB7DEB759
:100450002A970FB6F894DEBF0FBECDBF7C016B01AB
:100460008A014AE0BE016F5F7F4F0E94E41065E29F
:1004700071E0C8010E94CE108AE0E816F10464F52C
:1004800041E050E0BE016F5F7F4FC80102960E94BD
:10049000D5104AE0BE016F5F7F4FC6010E94E41095
:1004A0008AE0C816D1045CF541E050E0BE016F5F00
:1004B0007F4FC80105960E94D5102A960FB6F89472
:1004C000DEBF0FBECDBFDF91CF911F910F91FF9087
:1004D000EF90DF90CF90089584E6E816F10444F49D
:1004E00042E050E0BE016F5F7F4FC8010196CFCF61
:1004F00043E050E0BE016F5F7F4FC801C8CF84E684
:10050000E816F104D4F642E050E0BE016F5F7F4F81
:10051000C8010496D0CFCF93DF93CDB7DEB72A972B
:100520000FB6F894DEBF0FBECDBFEAE3F1E0608105
:10053000062E000C770BAE014F5F5F4F81819281D9
:100540000E941E0282E80E943E0987EC90E001971B
:10055000F1F700C00000CE0101960E94C4092A965E
:100560000FB6F894DEBF0FBECDBFDF91CF910895D7
:10057000CF93DF93CDB7DEB72A970FB6F894DEBFDF
:100580000FBECDBF80912D0183FF51C080E80E9436
:100590003E0987EC90E00197F1F700C0000083EA84
:1005A00090E00E94D0090E948B028DE80E943E09D3
:1005B00087EC90E00197F1F700C0000080912D01D9
:1005C00084FF3EC08FE990E00E94D0090E9416028D
:1005D0000E948B0280EC0E943E0987EC90E001971C
:1005E000F1F700C000008AE890E00E94D009609115
:1005F0003F017091400180914101909142010E9420
:10060000B801BE016F5F7F4F809145019091460117
:100610000E94FB008CEC0E943E0987EC90E0019761
:10062000F1F700C00000CE0101960E94C4092A968D
:100630000FB6F894DEBF0FBECDBFDF91CF91089506
:100640008BE990E0C1CF1092490110922C0180916A
:100650002D018F7E80932D0110922E011092440166
:10066000109243010E94B8024298439808950E9454
:100670005A090E946E0D0E94D40A0E9441085E9A97
:100680005F9A289A299A429843983A9A3B9A80917D
:100690002D01886080932D0144E050E060E070E01F
:1006A00085E491E00E94211110928500109284004F
:1006B000109280008CE08093810081EE94E0909312
:1006C000890080938800EFE6F0E08081826080837B
:1006D00078940E9423032A988FE39CE90197F1F70D
:1006E00000C000002A9A0E94940C809145019091CC
:1006F00046010C94830C86B18295817090913201F1
:10070000911106C0882319F081E080933201089589
:10071000913061F4811103C01092320108958091EB
:100720002D01826080932D0182E0EFCF923021F481
:100730008111EDCF83E0E9CF933049F7882361F34E
:10074000F3CF86B185FB882780F990913101911113
:1007500006C0882319F081E080933101089591301B
:1007600061F4811103C010923101089580912D012F
:10077000846080932D0182E0EFCF923021F48111CB
:10078000EDCF83E0E9CF933049F7882361F3F3CFCE
:1007900080E80E943E0987EC90E00197F1F700C0E5
:1007A000000089E790E00E94D00989E00E94200BB8
:1007B00080E00E94230B8AEF90E00E942C0B90E0D7
:1007C00080E00E94310B83E00E941D0B8091450167
:1007D000909146010E949A0B0C94E30B80EC0E94CE
:1007E0003E0987EC90E00197F1F700C0000088E631
:1007F00090E00E94D00987E00E94200B81E00E94D7
:10080000230B87EE93E00E942C0B90E080E00E9487
:10081000310B83E00E941D0B8091470190914801AC
:100820000E949A0B0C94E30BCF93DF9300D0CDB7CB
:10083000DEB7CE0101960E94030C8A81853459F5FA
:1008400080913001811150C00E94430B909346016A
:100850008093450187E00E94200B81E00E94230BDA
:1008600087EE93E00E942C0B90E080E00E94310B19
:1008700083E00E941D0B80914701909148010E94E6
:100880009A0B0E94E30B809130018F5F82300CF055
:1008900047C0809330018BE00E945407882309F4FD
:1008A00049C08CE00E943E098091300181113BC01B
:1008B0000E94430B909346018093450110923001B2
:1008C00044E050E060E070E085E491E00E94311186
:1008D00080914501909146010E94830C81E00F9028
:1008E0000F90DF91CF9108950E94430B90934801A0
:1008F0008093470189E00E94200B80E00E94230B37
:100900008AEF90E00E942C0B90E080E00E94310B77
:1009100083E00E941D0B8091450190914601AFCF6D
:1009200010923001B8CF0E94430B909348018093FE
:100930004701C4CF80E0D3CFECE7F0E09081907F17
:100940008F70982B90830895ECE7F0E090819F736F
:1009500040E4849F90011124922B90830895EAE74C
:10096000F0E09081987F892B80830895EAE7F0E09A
:100970008081806880830895EAE7F0E080818F7746
:1009800080830895811106C080917C008F7D8093C3
:100990007C00089580917C008062F9CF809179007D
:1009A0000895809178000895CF93C82F80E00E9429
:1009B000A40487E00E94AF0480917A00CF3F61F0E9
:1009C000806280937A0080917B00887F8C2B80935B
:1009D0007B00CF910C94B6048F7D80937A00F9CF81
:1009E00095B79E7F95BF0E949C04EAE7F0E0808166
:1009F0008064808308950E94F00480917A0086FDCF
:100A0000FCCF089590917A0095FD16C00E94FB04DA
:100A10008091780090917C002091790095FF1BC017
:100A200094E0299F90011124829586958695837084
:100A3000820F932F911D089580917A008061809399
:100A40007A0080917A0084FFFCCF80917A008061E7
:100A500080937A00DDCF30E0322F2227E9CFDF927A
:100A6000EF92FF920F931F93CF93DF938FE0E82EC7
:100A7000F12C9FE0D92EDE9C8001DF9C100D11240B
:100A8000E801C65ADE4F8C81811114C0E881F981DA
:100A90000995811103C08C818F5F8C8381E0E81AF6
:100AA000F10848F7DF91CF911F910F91FF90EF90E0
:100AB000DF9008958C818130A9F48D818F5F8D83C3
:100AC000843061F71D82E881F9810995882319F046
:100AD0008C818150E2CFF801EC59FE4F808181601A
:100AE0008083D9CF8C81823031F4E881F9810995F6
:100AF0008130A1F6D0CF8C81833081F68D818F5FDC
:100B00008D83843059F61D82E881F9810995813001
:100B1000F9F6F801EC59FE4F80818E7F80831C82AC
:100B2000BDCFCF92DF92EF92FF920F931F93CF939F
:100B3000DF9390E080E02FE061E0B3E034E0D32E7B
:100B400045E0C42E32E076E0A7E018E0289FA0013F
:100B5000299F500D1124FA01E65AFE4F068101111A
:100B600044C00185002369F0E185F0E0E65BFE4FBB
:100B7000E081E13031F44C595E4FEA01488147FF92
:100B800034C0289FA001299F500D1124FA01EC596F
:100B9000FE4FF0800F2D0170F0FE27C0F080F1FEB7
:100BA00035C1F0806894F5F8F082F080FA01E65AD9
:100BB000FE4FF4FE29C1C682289FF001299FF00D47
:100BC0001124EF01CC59DE4FF9806894F0F8F982D6
:100BD000E65AFE4F0185002341F0E185F0E0E65B37
:100BE000FE4F6083E881E068E883289FA001299F89
:100BF000500D1124FA01E65AFE4F0681053060F0CF
:100C00000681083048F44C595E4FEA01488140FDA6
:100C100003C0108617823683289FF001299FF00DAC
:100C20001124E65AFE4F4681453071F447815085C4
:100C30004F5F5F4F50874783E484F5844E155F050F
:100C400018F0108617827683289FF001299FF00DF7
:100C50001124EF01C65ADE4F0E81063051F4EC59D3
:100C6000FE4F008105FD05C0F0806894F5F8F08224
:100C7000AE83289FF001299FF00D1124E65AFE4F04
:100C80004681473071F4478150854F5F5F4F5087F1
:100C9000478306850417150609F018F41086178295
:100CA0007683289FF001299FF00D1124EF01C65A89
:100CB000DE4F0E81043051F4EC59FE4F008100FDEF
:100CC00005C0F0806894F5F8F0823E83289FE0012B
:100CD000299FD00D1124FE01E65AFE4F06810330F4
:100CE000D1F5E780F0844FEFE41AF40AF086E7824A
:100CF000CC59DE4F488140FD0EC047815085483CAD
:100D0000510548F4108617825881506258835881E3
:100D10005F7B58833683289FF001299FF00D1124B3
:100D2000AF01465A5E4FEA01EF80F884D8ECED1629
:100D3000F10488F0EA0118861F82EC59FE4FF0801A
:100D40006894F5F8F082F0806894F6F8F082E0811B
:100D5000E4FD6CC06E83289FA001299F500D1124D3
:100D6000FA01E65AFE4F0681013031F44C595E4FCC
:100D7000EA01488140FF3683289FA001299F500D3A
:100D80001124FA01E65AFE4F0681023031F44C5923
:100D90005E4FEA01488145FF1683289FF001299F95
:100DA000F00D1124AF01465A5E4FEA010E81083062
:100DB000E9F4F984FF2059F0498550E0465B5E4F25
:100DC000EA011882EC59FE4F40814F774083289FFB
:100DD000F001299FF00D1124AF01465A5E4FEA0140
:100DE0001E82EC59FE4F41814E7F41830196803136
:100DF000910509F0ABCEDF91CF911F910F91FF903C
:100E0000EF90DF90CF9008950683D6CE008102FF49
:100E100005C0465A5E4FFA01D682CECEE081E3FF8E
:100E2000CBCE465A5E4FEA01BE83C6CEAE8393CF89
:100E300090E080E02FE0289FF001299FF00D112421
:100E4000EC59FE4F308130FD06C00196803191058E
:100E500091F781E0089580E0089590E080E03FE020
:100E6000389FF001399FF00D1124EC59FE4F20817D
:100E70002F7D208301968031910591F7089590E0B0
:100E800080E02FE0289FF001299FF00D1124EB59FD
:100E9000FE4F308130FD06C001968031910591F7FB
:100EA00081E0089580E008959FE0899FF00111247A
:100EB000EC59FE4F808185FB882780F908959FE0DB
:100EC000899FF0011124EC59FE4F8081806280835C
:100ED00008959FE0899FF0011124EC59FE4F808115
:100EE0008F7D808308959FE0899FF0011124E65A49
:100EF000FE4F0280F381E02D09945A985B9A5C9A28
:100F00005D9A8AE08A95F1F700C089B186FB88274F
:100F100080F908955A985B9A5C9A5D9A8AE08A955E
:100F2000F1F700C089B1881F8827881F08955A9853
:100F30005B9A5C9A5D9A8AE08A95F1F700C083B16A
:100F4000817008955A985B9A5C9A5D9A8AE08A95B6
:100F5000F1F700C083B18695817008955A9A5B9825
:100F60005C9A5D9A8AE08A95F1F700C089B186FBA8
:100F7000882780F908955A9A5B985C9A5D9A8AE06E
:100F80008A95F1F700C089B1881F8827881F0895C6
:100F90005A9A5B985C9A5D9A8AE08A95F1F700C04C
:100FA00083B1817008955A9A5B985C9A5D9A8AE041
:100FB0008A95F1F700C083B18695817008955A9A99
:100FC0005B9A5C985D9A8AE08A95F1F700C089B1D6
:100FD00086FB882780F908955A9A5B9A5C985D9AF7
:100FE0008AE08A95F1F700C089B1881F8827881F99
:100FF00008955A9A5B9A5C985D9A8AE08A95F1F70F
:1010000000C083B1817008955A9A5B9A5C985D9A8A
:101010008AE08A95F1F700C083B1869581700895C2
:101020005A9A5B9A5C9A5D988AE08A95F1F700C0BB
:1010300089B186FB882780F908955A9A5B9A5C9A51
:101040005D988AE08A95F1F700C089B1881F8827EA
:10105000881F08955A9A5B9A5C9A5D988AE08A95EF
:10106000F1F700C083B1817008955A9A5B9A5C9A37
:101070005D988AE08A95F1F700C083B1869581700A
:101080000895529A539A549A559A56985798209878
:1010900021988DE797E090935B0180935A018AE84D
:1010A00097E090936A018093690187E997E09093B4
:1010B00079018093780182EA97E090938801809388
:1010C00087018EEA97E090939701809396018BEBCE
:1010D00097E09093A6018093A50188EC97E0909308
:1010E000B5018093B40183ED97E09093C4018093A0
:1010F000C3018FED97E09093D3018093D2018CEEE2
:1011000097E09093E2018093E10189EF97E090935B
:10111000F1018093F00184E098E0909300028093C5
:10112000FF0180E198E090930F0280930E028DE121
:1011300098E090931E0280931D028AE298E09093BB
:101140002D0280932C0285E398E090933C028093DB
:101150003B0230E020E0AFE064E670E058E2A29F9E
:10116000C001A39F900D1124FC01EC59FE4F40815A
:101170004260408340814B7F40834081477F408372
:1011800040814F7E4083FC01E65AFE4F11867587F1
:10119000648756872F5F3F4F2031310501F708954F
:1011A0000E942F050C9491050C942D07389A399ABA
:1011B000559A549A539A529A089555985498539818
:1011C00052980895559A549A539A529A089540986D
:1011D0000895409A08950895089585E08A95F1F755
:1011E0000000419A85E08A95F1F70000419885E07A
:1011F0008A95F1F70000089587FF0CC05A9A86FF80
:101200000BC05B9A85FF0AC05C9A84FF09C05D9A97
:101210000C94ED085A98F3CF5B98F4CF5C98F5CF17
:101220005D98F6CFCF93C82F0E94FC088C2F829533
:10123000807FCF910C94FC0829B199B139B189B163
:10124000990F990F990F9074330F3072932B30E0F0
:1012500035952795359527953695322F2227379541
:101260002795922B86958071892B08958FE697E1BB
:101270000197F1F700C0000080E00895CF93C82FD8
:101280008FE697E10197F1F700C000000E94E708A0
:101290008C2FCF910C941209CF93C82F8FE697E132
:1012A0000197F1F700C000000E94E9088C2FCF9150
:1012B0000C9412090E94D6088FE39CE90197F1F77C
:1012C00000C000008FE39CE90197F1F700C0000027
:1012D0008FE39CE90197F1F700C000008FE39CE9E0
:1012E0000197F1F700C000000E94E70880E30E9428
:1012F000FC088FEB9DE50197F1F700C0000080E34B
:101300000E94FC0887E592E00197F1F700C0000019
:1013100080E30E94FC0887E592E00197F1F700C0A6
:10132000000080E20E94FC080E94ED0888E20E9412
:101330003E0987EC90E00197F1F700C0000088E0DB
:101340000E943E0987EC90E00197F1F700C0000091
:1013500081E00E943E098FE39FE10197F1F700C011
:10136000000086E00E943E0987EC90E00197F1F7CB
:1013700000C000008CE00E943E0987EC90E00197DD
:10138000F1F700C000000895CF93DF93EC0189913D
:10139000811103C0DF91CF9108950E944C09F7CFCE
:1013A000CF93DF93EC01FE018491882321F00E940A
:1013B0004C092196F8CFDF91CF91089562303CF42B
:1013C000611103C080580C943E09613011F48054BF
:1013D000FACF80E8F8CFFC0101900020E9F73197BF
:1013E000E81BF90BE03138F480E190E08E1B9109A5
:1013F00095958795089580E008956F3F11F40C94BA
:10140000EB0980E008950F931F93CF93DF93EC01D6
:101410008B01842F188AFE01709690E29293EC174C
:10142000FD07E1F787FF03C0C8010E94EB09F8013F
:1014300001900020E9F73197E01BF10BE80FE13153
:101440000CF0E0E1C80FD11D87FDDA9590E0282F60
:10145000290F2E172CF0DF91CF911F910F91089536
:10146000D801A90FB11D97FDBA952C9129939F5FC3
:10147000EECFFF920F931F93CF93DF93CDB7DEB7DD
:1014800061970FB6F894DEBF0FBECDBF8C01F42E6E
:1014900041E150E0CE0101960E94BF10198A4F2D04
:1014A000BE016F5F7F4FC8010E94030A61960FB6AD
:1014B000F894DEBF0FBECDBFDF91CF911F910F918A
:1014C000FF900895FC018EE2858786878787108AC2
:1014D0000895CF93C62F2A9895E09A95F1F70000CA
:1014E0000E94750D8C2F0E94750D95E09A95F1F76D
:1014F00000002A9ACF910895EF92FF920F931F93C5
:10150000CF93DF938B01E42E2A9895E09A95F1F71B
:1015100000000E94750DE80110E000E00E2C000CA8
:10152000FF080E151F0564F085E08A95F1F70000AD
:101530002A9ADF91CF911F910F91FF90EF9008951C
:1015400089910E94750D0F5F1F4FEBCF60E00C94E7
:10155000690AEF92FF920F931F93CF93DF938B0152
:10156000E42E2A9895E09A95F1F700000E94750DF7
:10157000E80110E000E00E2C000CFF080E151F051E
:1015800064F085E08A95F1F700002A9ADF91CF9107
:101590001F910F91FF90EF90089580E00E94750DCC
:1015A00089930F5F1F4FEACF60E980E80E94690AC4
:1015B00085E38A95F1F7000062E481E80E94690AF8
:1015C00085E38A95F1F7000085E38A95F1F700003D
:1015D0000895CF93DF9300D00F92CDB7DEB743E0ED
:1015E000BE016F5F7F4F8CE00E94A90A8981282F7E
:1015F00030E0322F22278A81807F820F932F911D26
:1016000024E0969587952A95E1F70F900F900F901B
:10161000DF91CF910895CF93DF9300D0CDB7DEB7A0
:1016200042E0BE016F5F7F4F8AE00E94A90A898174
:101630000F900F90DF91CF910895809356020895F7
:101640008093540208958093550208958091540226
:10165000089580915502089590935102809350020D
:1016600008959093530280935202089580915002FE
:1016700090915102089580915202909153020895E1
:101680008AE492E008958AE492E00C94A11090918B
:101690004F02813059F08230D9F090914F0297FF7C
:1016A00035C010924F0280914F020895915097FDDE
:1016B0000CC090934F02E0914F020E2E000CFF0BD6
:1016C000E65BFD4F80E28083E8CF10924F02F3CFBC
:1016D0008091560298170CF78150E82F082E000CC5
:1016E000FF0BE65BFD4F98175CF0E92F092E000C0D
:1016F000FF0BE65BFD4F60839F5F90934F02CDCF62
:10170000DF012E9120838150FD01EDCF80915602A3
:1017100089174CF680934F02C6CFCF93DF93CAE46C
:10172000D2E06C85CE010E947B0D8C858D83DF918C
:10173000CF9108950F931F93CF93DF93CDB7DEB76B
:101740002F970FB6F894DEBF0FBECDBF9C018091DE
:101750005002909151028217930744F080915202F7
:1017600090915302821793070CF4C9014AE08E014D
:101770000F5F1F4FB8010E94E410F8010190002094
:10178000E9F73197E01BF10B80915602282F082EC4
:10179000000C330BE217F30724F0F801E80FF11DFA
:1017A0001082B8018AE492E00E94CE100E948D0B54
:1017B0002F960FB6F894DEBF0FBECDBFDF91CF914D
:1017C0001F910F9108951F93CF93DF93182F0E94BD
:1017D000260BC82F0E94290BD82F8CE00E943E09AF
:1017E0006D2F8C2F0E94DE090E94400B0E94C409BD
:1017F0006D2F8C2F810F0E94DE098FE0DF91CF913A
:101800001F910C943E09CF93DF93EC01198218824B
:1018100080E00E945407882321F081E3898382E0DD
:10182000888381E00E945407882321F082E3898322
:1018300082E0888382E00E945407882321F083E3BA
:10184000898382E0888384E00E945407882321F002
:1018500084E3898382E0888385E00E94540788239B
:1018600021F085E3898382E0888386E00E94540723
:10187000882321F086E3898382E0888388E00E94C0
:101880005407882321F087E3898382E0888389E0F5
:101890000E945407882321F088E3898382E08883AB
:1018A0008AE00E945407882321F089E3898382E03B
:1018B00088838DE00E945407882321F080E3898388
:1018C00082E088838FE00E945407882341F085E4FA
:1018D00089830E94430B0E949A0B0E94E30B8CE0C9
:1018E0000E945407882311F081E0888388811816AC
:1018F0003CF469810E94470BDF91CF910C94E30B7C
:10190000DF91CF91089590935802809357020895E4
:1019100080915702909158020895E7E5F2E017860A
:101920001686118A108A08950E948D0CE7E5F2E070
:1019300080E090E0A0ECB0E482839383A483B5833D
:1019400080E090E0A0EBB0E486839783A087B18726
:1019500080E090E0A0E0BFE382879387A487B5870B
:101960000895CF92DF92EF92FF920F931F93CF9340
:10197000DF93C0915702D0915802C81BD90B8091B8
:101980006502909166028C0F9D1F8B3091050CF4BF
:101990006EC08AE090E09093660280936502809129
:1019A0006702909168028E01081B190B10936A025E
:1019B00000936902D0936802C09367026091650248
:1019C00070916602072E000C880B990B0E94A80FDD
:1019D00020915D0230915E0240915F025091600261
:1019E0000E9434106B017C01BE01DD0F880B990B46
:1019F0000E94A80F2091590230915A0240915B0237
:101A000050915C020E9434109B01AC01C701B601E9
:101A10000E94040F6B017C01B801110F880B990B18
:101A20000E94A80F209161023091620240916302EE
:101A3000509164020E9434109B01AC01C701B601B1
:101A40000E94040F0E94700F77FF02C070E060E0F8
:101A5000CB016536710514F084E690E0DF91CF91FB
:101A60001F910F91FF90EF90DF90CF90089597FF17
:101A700092CF109266021092650291CF9091390137
:101A80009F5F953018F490933901089510923901B1
:101A900090910001913051F48823C1F0429A9091C5
:101AA00038019F5F981750F4909338018091370167
:101AB0008F5F843668F4809337010895109238015F
:101AC000843608F4429810920001F0CF4298EECF8D
:101AD0001092370181E08093000108952A9A84B121
:101AE0008C6284B98FE58CBD08958EBD0DB407FE60
:101AF000FDCF8EB50895CF92DF92EF92FF921F93A4
:101B0000CF93DF93CDB7DEB72F970FB6F894DEBF34
:101B10000FBECDBF7C01162F0E94A1104AE09E018E
:101B20002F5F3F4F6901B9010E94E410F601019057
:101B30000020E9F73197EC19FD091E1BB601C7011A
:101B4000810F911D17FD9A950E94CE106FEF610FC6
:101B5000062E000C770B80E267FF0EC02F960FB6A3
:101B6000F894DEBF0FBECDBFDF91CF911F91FF90E4
:101B7000EF90DF90CF900895F701E60FF71F808375
:101B800061507109E9CF9093C5008093C40088E942
:101B90008093C10086E08093C20008959091C000B8
:101BA00095FFFCCF8093C60008958091C00087FF09
:101BB000FCCF8091C60008958F938091C6008F91CD
:101BC0001895CF93DF93EC018991811103C0DF91C8
:101BD000CF9108950E94CE0DF7CF0E94E10D8AE0CB
:101BE0000C94CE0DCF93DF93EC01FE0184918823FA
:101BF00021F00E94CE0D2196F8CFDF91CF9108956C
:101C00000E94F20D8AE00C94CE0D0E943703809161
:101C10002F0180FF0AC080912F018E7F80932F01BA
:101C200080912D01816080932D0180912D0180FF95
:101C300018C00E94AA00892B71F080912D0183FFAA
:101C40000AC060913F0170914001809141019091E3
:101C500042010E94B8010E947B030E94A1030E94DE
:101C6000D00880913601811191C08EE00E94540706
:101C70008823B9F080912D01877F80932D0181E029
:101C80000E943E098FE39FE10197F1F700C0000039
:101C90000E94EE030E94C803809136018F5F8093FB
:101CA000360180912D0182FF83C080912D018B7FB1
:101CB00080932D010E9423031092350180912D0104
:101CC000826080932D0180912D0181FF0FC0809152
:101CD0002D018D7F80932D0181E080932C010E9446
:101CE000160280912D0183FD0E948B0280912C01B0
:101CF000882309F443C00E94E0018F7029F080918D
:101D00002D0183FD0E948B0220913B0130913C010B
:101D10008091470190914801281739077CF10E9472
:101D2000160280912D0183FF0FC00E948B028DE867
:101D30000E943E0987EC90E00197F1F700C0000097
:101D400084EB90E00E94D009439A80912D0180613C
:101D500080932D0160913F0170914001809141017C
:101D6000909142010E94700FCB010E94B10C8093B0
:101D70002E01809135018F5F8093350180912D0177
:101D80008E7F80932D010E94D40841CF813009F0CD
:101D900088CF0E941404882309F483CF109236015F
:101DA00080912D01886080932D010E94B80279CF27
:101DB00080913501882309F486CF80912D0180FF21
:101DC000DDCF80914301909144010196843F21E051
:101DD000920728F49093440180934301CFCF10924F
:101DE00044011092430160913F0170914001809144
:101DF0004101909142010E94700FCB010E94B10CF1
:101E000080932E01BBCF5058BB27AA270E941B0FDF
:101E10000C94FA0F0E94EC0F38F00E94F30F20F0A0
:101E200039F49F3F19F426F40C94E90F0EF4E09571
:101E3000E7FB0C94E30FE92F0E940B1058F3BA173D
:101E4000620773078407950720F079F4A6F50C94D0
:101E50002D100EF4E0950B2EBA2FA02D0B01B90119
:101E600090010C01CA01A0011124FF27591B99F010
:101E7000593F50F4503E68F11A16F040A22F232F1C
:101E8000342F4427585FF3CF469537952795A7956C
:101E9000F0405395C9F77EF41F16BA0B620B730B13
:101EA000840BBAF09150A1F0FF0FBB1F661F771F84
:101EB000881FC2F70EC0BA0F621F731F841F48F439
:101EC000879577956795B795F7959E3F08F0B0CFC2
:101ED0009395880F08F09927EE0F979587950895A9
:101EE0000E94770F6894B1110C942E1008950E94EF
:101EF000131088F09F5798F0B92F9927B751B0F079
:101F0000E1F0660F771F881F991F1AF0BA95C9F77D
:101F100014C0B13091F00E942D10B1E008950C94DE
:101F20002D10672F782F8827B85F39F0B93FCCF391
:101F3000869577956795B395D9F73EF490958095FA
:101F4000709561957F4F8F4F9F4F0895E89409C01A
:101F500097FB3EF490958095709561957F4F8F4FDC
:101F60009F4F9923A9F0F92F96E9BB279395F695F2
:101F7000879577956795B795F111F8CFFAF4BB0F70
:101F800011F460FF1BC06F5F7F4F8F4F9F4F16C0D4
:101F9000882311F096E911C0772321F09EE8872F5E
:101FA000762F05C0662371F096E8862F70E060E01A
:101FB0002AF09A95660F771F881FDAF7880F969593
:101FC000879597F9089597F99F6780E870E060E03A
:101FD00008959FEF80EC089500240A9416161706C2
:101FE00018060906089500240A941216130614060A
:101FF00005060895092E0394000C11F4882352F06D
:10200000BB0F40F4BF2B11F460FF04C06F5F7F4F24
:102010008F4F9F4F089557FD9058440F551F59F00B
:102020005F3F71F04795880F97FB991F61F09F3FC5
:1020300079F087950895121613061406551FF2CFEE
:102040004695F1DF08C0161617061806991FF1CF3E
:1020500086957105610508940895E894BB27662765
:102060007727CB0197F908950E9447100C94FA0F37
:102070000E94EC0F38F00E94F30F20F0952311F02E
:102080000C94E30F0C94E90F11240C942E100E9471
:102090000B1070F3959FC1F3950F50E0551F629F91
:1020A000F001729FBB27F00DB11D639FAA27F00DB1
:1020B000B11DAA1F649F6627B00DA11D661F829FD8
:1020C0002227B00DA11D621F739FB00DA11D621FBD
:1020D000839FA00D611D221F749F3327A00D611DDA
:1020E000231F849F600D211D822F762F6A2F1124BC
:1020F0009F5750409AF0F1F088234AF0EE0FFF1FEF
:10210000BB1F661F771F881F91505040A9F79E3F45
:10211000510580F00C94E30F0C942E105F3FE4F314
:10212000983ED4F3869577956795B795F795E7959B
:102130009F5FC1F7FE2B880F911D9695879597F9A4
:102140000895FC0188279927E89421912032E9F32A
:10215000293010F02E30C8F32B3241F02D3239F4F3
:10216000689404C00E94EF10820F911D21912053AA
:102170002A30C0F31EF4909581959F4F0895FB017E
:10218000DC014150504048F005900D920020C9F705
:1021900001C01D9241505040E0F70895FB01DC0161
:1021A00001900D920020E1F70895FB01DC01415000
:1021B000504048F001900D920020C9F701C01D92D7
:1021C00041505040E0F70895BB274A3031F499233D
:1021D00022F4BDE2909581959F4F0C94F8107AE01F
:1021E000979F902D879F802D910D11240895BB27D7
:1021F000FB015527AA27880F991FAA1FA41710F0C3
:10220000A41B83955051B9F7A05DAA3308F0A95DCE
:10221000A193009779F7B111B1931192CB010C946E
:102220001111DC01FC01672F71917723E1F73297DF
:1022300004C07C916D9370836291AE17BF07C8F3A1
:102240000895DC01CB01FC01F999FECF06C0F2BD77
:10225000E1BDF89A319600B40D9241505040B8F764
:102260000895DC01A40FB51F4150504048F0CB0148
:10227000840F951F2E910E94421141505040D0F77B
:102280000895262FF999FECF92BD81BDF89A019746
:1022900000B4021639F01FBA20BD0FB6F894FA9AAE
:0A22A000F99A0FBE0895F894FFCFDD
:1022AA000166766E402E46E9C381952340C14F40B0
:1022BA0043CBC1953F1900FA00FAFEC742931A5A56
:0C22CA0038202020002020203A30200086
:00000001FF
