:100000000C945C000C9479000C9479000C947900A9
:100010000C9479000C9479000C9479000C9479007C
:100020000C9479000C9479000C9479000C947B006A
:100030000C9479000C9479000C9479000C9479005C
:100040000C9479000C9479000C942C0E0C9479008B
:100050000C9479000C9479000C9479000C9479003C
:100060000C9479000C9479005469656D706F3D2093
:100070002020206D696E20200054656D705B7370C8
:100080005D3D202020204320200054703D20202072
:1000900043205473703D20202043004F4646004FBC
:1000A0004E2000743D2020203A2020732054433DF0
:1000B000202020004F4E200011241FBECFEFD8E09B
:1000C000DEBFCDBF11E0A0E0B1E0E4ECF4E202C09D
:1000D00005900D92AC32B107D9F722E0ACE2B1E065
:1000E00001C01D92AF36B207E1F70E94550E0C9485
:1000F00060120C9400001F920F920FB60F92112401
:100100002F933F934F935F936F937F938F939F931F
:10011000AF93BF93EF93FF9380912F018160809302
:100120002F0180912D0184FF04C080912E010E9437
:100130008E0DFF91EF91BF91AF919F918F917F9124
:100140006F915F914F913F912F910F900FBE0F9044
:100150001F901895CF92DF92EF92FF920F931F930B
:1001600086E00E942A054091350150913601609148
:100170003701709138018A019B01080F191F211D59
:10018000311DC901B8016093350170933601809328
:1001900037019093380120913301309134012F5F62
:1001A0003F4F2233310568F43093340120933301FB
:1001B00080E090E01F910F91FF90EF90DF90CF9043
:1001C000089510923401109233011092350110926B
:1001D0003601109237011092380122E330E040E0FE
:1001E00050E00E944E0FCA01B9010E948A102AE90C
:1001F00039E941EA50E40E94411120E030EC4FE738
:1002000054E40E94E20F21EC3FE440E453E40E94F6
:1002100041112EE236E449EE53E40E94700F6B0167
:100220007C0120E030E0A9010E94DD0F87FF0AC0B9
:100230001092430110924401109245011092460120
:1002400081E0B7CF20E030EC49E754E4C701B601C4
:100250000E943C1118166CF480E090ECA9E7B4E41D
:100260008093430190934401A0934501B0934601CC
:10027000E7CFC0924301D0924401E0924501F09251
:100280004601DECFEF92FF920F931F93CF93DF9340
:10029000CDB7DEB72A970FB6F894DEBF0FBECDBF3D
:1002A0007C018B014AE0BE016F5F7F4F0E94F1111C
:1002B00061E271E0C8010E94DB118AE0E816F104F6
:1002C000B4F441E050E0BE016F5F7F4FC801029679
:1002D0000E94E2112A960FB6F894DEBF0FBECDBF82
:1002E000DF91CF911F910F91FF90EF90089584E6D9
:1002F000E816F10444F442E050E0BE016F5F7F4F26
:10030000C8010196E5CF43E050E0BE016F5F7F4F2B
:10031000C801DECFCF93DF93CDB7DEB72A970FB6F4
:10032000F894DEBF0FBECDBFBE016F5F7F4F0E944E
:10033000420183EC0E94660985E38A95F1F700008B
:10034000CE0101960E94EC092A960FB6F894DEBF02
:100350000FBECDBFDF91CF910895CF93DF93CDB77F
:10036000DEB72A970FB6F894DEBF0FBECDBFBE0131
:100370006F5F7F4F082E000C990B0E94420183E8AB
:100380000E94660985E38A95F1F70000CE01019687
:100390000E94EC092A960FB6F894DEBF0FBECDBFBF
:1003A000DF91CF910895CF93DF93CDB7DEB72A9732
:1003B0000FB6F894DEBF0FBECDBFBE016F5F7F4F9B
:1003C000082E000C990B0E9442018AE80E946609DF
:1003D00085E38A95F1F70000CE0101960E94EC09B1
:1003E0002A960FB6F894DEBF0FBECDBFDF91CF9136
:1003F0000895CF93DF93CDB7DEB72A970FB6F89461
:10040000DEBF0FBECDBF0E945410CB01BE016F5F97
:100410007F4F0E94420183EC0E94660985E38A9522
:10042000F1F70000CE0101960E94EC092A960FB662
:10043000F894DEBF0FBECDBFDF91CF9108958091BC
:100440002D0180FD02C080E00895809141019091CE
:1004500042010196823391052CF4909342018093DE
:100460004101F1CF109242011092410180913E0171
:100470008F5F8C3324F480933E0181E008951092C5
:100480003E0180913F01909140010196883E23E01A
:10049000920734F49093400180933F0181E10895E5
:1004A0001092400110923F01F9CFEEE3F1E0148287
:1004B00013821082128211820895CF92DF92EF92FE
:1004C000FF920F931F93CF93DF93CDB7DEB72A9799
:1004D0000FB6F894DEBF0FBECDBF7C016B018A0161
:1004E0004AE0BE016F5F7F4F0E94F11165E271E04B
:1004F000C8010E94DB118AE0E816F10464F541E0CE
:1005000050E0BE016F5F7F4FC80102960E94E2116A
:100510004AE0BE016F5F7F4FC6010E94F1118AE081
:10052000C816D1045CF541E050E0BE016F5F7F4F1B
:10053000C80105960E94E2112A960FB6F894DEBF14
:100540000FBECDBFDF91CF911F910F91FF90EF9024
:10055000DF90CF90089584E6E816F10444F442E079
:1005600050E0BE016F5F7F4FC8010196CFCF43E0DF
:1005700050E0BE016F5F7F4FC801C8CF84E6E81628
:10058000F104D4F642E050E0BE016F5F7F4FC80136
:100590000496D0CFCF93DF93CDB7DEB72A970FB6AF
:1005A000F894DEBF0FBECDBFEEE3F1E06081062E12
:1005B000000C770BAE014F5F5F4F818192810E94EB
:1005C0005D0282E80E94660985E38A95F1F70000E2
:1005D000CE0101960E94EC092A960FB6F894DEBF70
:1005E0000FBECDBFDF91CF910895CF93DF93CDB7ED
:1005F000DEB72A970FB6F894DEBF0FBECDBF80914D
:100600002D0183FF47C080E80E94660985E38A9533
:10061000F1F7000083EA90E00E94F8090E94CA0204
:100620008DE80E94660985E38A95F1F700008091C4
:100630002D0184FF38C08FE990E00E94F8090E94E4
:10064000CA0280EC0E94660985E38A95F1F70000F2
:100650008AE890E00E94F80960914301709144019A
:1006600080914501909146010E94F901BE016F5FA2
:100670007F4F8091490190914A010E9442018CEC88
:100680000E94660985E38A95F1F70000CE01019684
:100690000E94EC092A960FB6F894DEBF0FBECDBFBC
:1006A000DF91CF9108958BE990E0C7CF10924D0173
:1006B00010922C0180912D018F7E80932D0110923C
:1006C0002E0110924801109247010E9455020E948B
:1006D000F5024298439808950E9482098FEF0E9484
:1006E000FC040E9469085E9A5F9A289A299A4298A7
:1006F00043983A9A3B9A80912D01886080932D010E
:1007000044E050E060E070E089E491E00E942E1245
:100710001092850010928400109280008CE08093EB
:10072000810081EE94E09093890080938800EFE649
:10073000F0E080818260808378940E9456030E945A
:10074000BC0C8091490190914A010C94AB0C86B18C
:100750008295817090913201911106C0882319F021
:1007600081E0809332010895913061F4811103C0DA
:1007700010923201089580912D01826080932D01A5
:1007800082E0EFCF923021F48111EDCF83E0E9CF09
:10079000933049F7882361F3F3CF86B185FB88272F
:1007A00080F990913101911106C0882319F081E000
:1007B000809331010895913061F4811103C010924A
:1007C0003101089580912D01846080932D0182E094
:1007D000EFCF923021F48111EDCF83E0E9CF933058
:1007E00049F7882361F3F3CF80E80E94660985E327
:1007F0008A95F1F7000089E790E00E94F80989E006
:100800000E94480B80E00E944B0B8AEF90E00E9410
:10081000540B90E080E00E94590B83E00E94450B4E
:100820008091490190914A010E94C20B0C940B0CDB
:1008300080EC0E94660985E38A95F1F7000088E65E
:1008400090E00E94F80987E00E94480B81E00E9436
:100850004B0B87EE93E00E94540B90E080E00E94E7
:10086000590B83E00E94450B80914B0190914C0104
:100870000E94C20B0C940B0CCF93DF9300D0CDB72A
:10088000DEB7CE0101960E942B0C8A81853459F582
:1008900080913001811150C00E946B0B90934A01EE
:1008A0008093490187E00E94480B81E00E944B0B36
:1008B00087EE93E00E94540B90E080E00E94590B79
:1008C00083E00E94450B80914B0190914C010E9466
:1008D000C20B0E940B0C809130018F5F82300CF0B4
:1008E00047C0809330018BE00E947C07882309F485
:1008F00049C08CE00E9466098091300181113BC0A3
:100900000E946B0B90934A01809349011092300131
:1009100044E050E060E070E089E491E00E943E1223
:100920008091490190914A010E94AB0C81E00F90A7
:100930000F90DF91CF9108950E946B0B90934C0123
:1009400080934B0189E00E94480B80E00E944B0B92
:100950008AEF90E00E94540B90E080E00E94590BD7
:1009600083E00E94450B8091490190914A01AFCFED
:1009700010923001B8CF0E946B0B90934C01809382
:100980004B01C4CF80E0D3CFECE7F0E09081907FC3
:100990008F70982B90830895ECE7F0E090819F731F
:1009A00040E4849F90011124922B90830895EAE7FC
:1009B000F0E09081987F892B80830895EAE7F0E04A
:1009C0008081806880830895EAE7F0E080818F77F6
:1009D00080830895811106C080917C008F7D809373
:1009E0007C00089580917C008062F9CF809179002D
:1009F0000895809178000895CF93C82F81E00E94D8
:100A0000CC0487E00E94D70480917A00CF3F61F048
:100A1000806280937A0080917B00887F8C2B80930A
:100A20007B00CF910C94DE048F7D80937A00F9CF08
:100A300095B79E7F95BF0E94C404EAE7F0E08081ED
:100A40008064808308950E94180580917A0086FD55
:100A5000FCCF089590917A0095FD16C00E94230561
:100A60008091780090917C002091790095FF1BC0C7
:100A700094E0299F90011124829586958695837034
:100A8000820F932F911D089580917A008061809349
:100A90007A0080917A0084FFFCCF80917A00806197
:100AA00080937A00DDCF30E0322F2227E9CFDF922A
:100AB000EF92FF920F931F93CF93DF938FE0E82E77
:100AC000F12C9FE0D92EDE9C8001DF9C100D1124BB
:100AD000E801C25ADE4F8C81811114C0E881F9818E
:100AE0000995811103C08C818F5F8C8381E0E81AA6
:100AF000F10848F7DF91CF911F910F91FF90EF9090
:100B0000DF9008958C818130A9F48D818F5F8D8372
:100B1000843061F71D82E881F9810995882319F0F5
:100B20008C818150E2CFF801E859FE4F80818160CD
:100B30008083D9CF8C81823031F4E881F9810995A5
:100B40008130A1F6D0CF8C81833081F68D818F5F8B
:100B50008D83843059F61D82E881F98109958130B1
:100B6000F9F6F801E859FE4F80818E7F80831C8260
:100B7000BDCFCF92DF92EF92FF920F931F93CF934F
:100B8000DF9390E080E02FE061E0B3E034E0D32E2B
:100B900045E0C42E32E076E0A7E018E0289FA001EF
:100BA000299F500D1124FA01E25AFE4F06810111CE
:100BB00044C00185002369F0E185F0E0E25BFE4F6F
:100BC000E081E13031F448595E4FEA01488147FF46
:100BD00034C0289FA001299F500D1124FA01E85923
:100BE000FE4FF0800F2D0170F0FE27C0F080F1FE67
:100BF00035C1F0806894F5F8F082F080FA01E25A8D
:100C0000FE4FF4FE29C1C682289FF001299FF00DF6
:100C10001124EF01C859DE4FF9806894F0F8F98289
:100C2000E25AFE4F0185002341F0E185F0E0E25BEE
:100C3000FE4F6083E881E068E883289FA001299F38
:100C4000500D1124FA01E25AFE4F0681053060F082
:100C50000681083048F448595E4FEA01488140FD5A
:100C600003C0108617823683289FF001299FF00D5C
:100C70001124E25AFE4F4681453071F44781508578
:100C80004F5F5F4F50874783E484F5844E155F05BF
:100C900018F0108617827683289FF001299FF00DA7
:100CA0001124EF01C25ADE4F0E81063051F4E8598B
:100CB000FE4F008105FD05C0F0806894F5F8F082D4
:100CC000AE83289FF001299FF00D1124E25AFE4FB8
:100CD0004681473071F4478150854F5F5F4F5087A1
:100CE000478306850417150609F018F41086178245
:100CF0007683289FF001299FF00D1124EF01C25A3D
:100D0000DE4F0E81043051F4E859FE4F008100FDA2
:100D100005C0F0806894F5F8F0823E83289FE001DA
:100D2000299FD00D1124FE01E25AFE4F06810330A7
:100D3000D1F5E780F0844FEFE41AF40AF086E782F9
:100D4000C859DE4F488140FD0EC047815085483C60
:100D5000510548F410861782588150625883588193
:100D60005F7B58833683289FF001299FF00D112463
:100D7000AF01425A5E4FEA01EF80F884D8ECED16DD
:100D8000F10488F0EA0118861F82E859FE4FF080CE
:100D90006894F5F8F082F0806894F6F8F082E081CB
:100DA000E4FD6CC06E83289FA001299F500D112483
:100DB000FA01E25AFE4F0681013031F448595E4F84
:100DC000EA01488140FF3683289FA001299F500DEA
:100DD0001124FA01E25AFE4F0681023031F44859DB
:100DE0005E4FEA01488145FF1683289FF001299F45
:100DF000F00D1124AF01425A5E4FEA010E81083016
:100E0000E9F4F984FF2059F0498550E0425B5E4FD8
:100E1000EA011882E859FE4F40814F774083289FAE
:100E2000F001299FF00D1124AF01425A5E4FEA01F3
:100E30001E82E859FE4F41814E7F418301968031E9
:100E4000910509F0ABCEDF91CF911F910F91FF90EB
:100E5000EF90DF90CF9008950683D6CE008102FFF9
:100E600005C0425A5E4FFA01D682CECEE081E3FF42
:100E7000CBCE425A5E4FEA01BE83C6CEAE8393CF3D
:100E800090E080E02FE0289FF001299FF00D1124D1
:100E9000E859FE4F308130FD06C001968031910542
:100EA00091F781E0089580E0089590E080E03FE0D0
:100EB000389FF001399FF00D1124E859FE4F208131
:100EC0002F7D208301968031910591F7089590E060
:100ED00080E02FE0289FF001299FF00D1124E759B1
:100EE000FE4F308130FD06C001968031910591F7AB
:100EF00081E0089580E008959FE0899FF00111242A
:100F0000E859FE4F808185FB882780F908959FE08E
:100F1000899FF0011124E859FE4F8081806280830F
:100F200008959FE0899FF0011124E859FE4F8081C8
:100F30008F7D808308959FE0899FF0011124E25AFC
:100F4000FE4F0280F381E02D09945A985B9A5C9AD7
:100F50005D9A8AE08A95F1F700C089B186FB8827FF
:100F600080F908955A985B9A5C9A5D9A8AE08A950E
:100F7000F1F700C089B1881F8827881F08955A9803
:100F80005B9A5C9A5D9A8AE08A95F1F700C083B11A
:100F9000817008955A985B9A5C9A5D9A8AE08A9566
:100FA000F1F700C083B18695817008955A9A5B98D5
:100FB0005C9A5D9A8AE08A95F1F700C089B186FB58
:100FC000882780F908955A9A5B985C9A5D9A8AE01E
:100FD0008A95F1F700C089B1881F8827881F089576
:100FE0005A9A5B985C9A5D9A8AE08A95F1F700C0FC
:100FF00083B1817008955A9A5B985C9A5D9A8AE0F1
:101000008A95F1F700C083B18695817008955A9A48
:101010005B9A5C985D9A8AE08A95F1F700C089B185
:1010200086FB882780F908955A9A5B9A5C985D9AA6
:101030008AE08A95F1F700C089B1881F8827881F48
:1010400008955A9A5B9A5C985D9A8AE08A95F1F7BE
:1010500000C083B1817008955A9A5B9A5C985D9A3A
:101060008AE08A95F1F700C083B186958170089572
:101070005A9A5B9A5C9A5D988AE08A95F1F700C06B
:1010800089B186FB882780F908955A9A5B9A5C9A01
:101090005D988AE08A95F1F700C089B1881F88279A
:1010A000881F08955A9A5B9A5C9A5D988AE08A959F
:1010B000F1F700C083B1817008955A9A5B9A5C9AE7
:1010C0005D988AE08A95F1F700C083B186958170BA
:1010D0000895529A539A549A559A56985798209828
:1010E000219885EA97E090935F0180935E0182EBFF
:1010F00097E090936E0180936D018FEB97E0909352
:101100007D0180937C018AEC97E090938C01809321
:101110008B0186ED97E090939B0180939A0183EE7B
:1011200097E09093AA018093A90180EF97E09093B4
:10113000B9018093B8018BEF97E09093C801809339
:10114000C70187E098E09093D7018093D60184E1AE
:1011500098E09093E6018093E50181E298E0909316
:10116000F5018093F4018CE298E09093040280935F
:10117000030288E398E0909313028093120285E4BF
:1011800098E0909322028093210282E598E0909368
:101190003102809330028DE598E090934002809375
:1011A0003F0230E020E0AFE064E670E058E2A29F4A
:1011B000C001A39F900D1124FC01E859FE4F40810E
:1011C0004260408340814B7F40834081477F408322
:1011D00040814F7E4083FC01E25AFE4F11867587A5
:1011E000648756872F5F3F4F2031310501F70895FF
:1011F0000E9457050C94B9050C945507389A399AF2
:10120000559A549A539A529A0895559854985398C7
:1012100052980895559A549A539A529A089540981C
:101220000895409A08950895089585E08A95F1F704
:101230000000419A85E08A95F1F70000419885E029
:101240008A95F1F70000089587FF0CC05A9A86FF2F
:101250000BC05B9A85FF0AC05C9A84FF09C05D9A47
:101260000C9415095A98F3CF5B98F4CF5C98F5CF9E
:101270005D98F6CFCF93C82F0E9424098C2F8295BA
:10128000807FCF910C94240929B199B139B189B1EA
:10129000990F990F990F9074330F3072932B30E0A0
:1012A00035952795359527953695322F22273795F1
:1012B0002795922B86958071892B08958FE396E070
:1012C0000197F1F700C0000080E00895CF93C82F88
:1012D0008FE396E00197F1F700C000000E940F092C
:1012E0008C2FCF910C943A09CF93C82F8FE396E0BF
:1012F0000197F1F700C000000E9411098C2FCF91D7
:101300000C943A090E94FE088FE39CE90197F1F7DB
:1013100000C000008FE39CE90197F1F700C00000D6
:101320008FE39CE90197F1F700C000008FE39CE98F
:101330000197F1F700C000000E940F0980E30E94AE
:1013400024098FEB9DE50197F1F700C0000080E3D1
:101350000E94240987E592E00197F1F700C00000A0
:1013600080E30E94240987E592E00197F1F700C02D
:10137000000080E20E9424090E94150988E20E9470
:10138000660987EC90E00197F1F700C0000088E063
:101390000E94660987EC90E00197F1F700C0000019
:1013A00081E00E9466098FE39FE10197F1F700C099
:1013B000000086E00E94660987EC90E00197F1F753
:1013C00000C000008CE00E94660987EC90E0019765
:1013D000F1F700C000000895CF93DF93EC018991ED
:1013E000811103C0DF91CF9108950E947409F7CF56
:1013F000CF93DF93EC01FE018491882321F00E94BA
:1014000074092196F8CFDF91CF91089562303CF4B2
:10141000611103C080580C946609613011F4805446
:10142000FACF80E8F8CFFC0101900020E9F731976E
:10143000E81BF90BE03138F480E190E08E1B910954
:1014400095958795089580E008956F3F11F40C9469
:10145000130A80E008950F931F93CF93DF93EC015D
:101460008B01842F188AFE01709690E29293EC17FC
:10147000FD07E1F787FF03C0C8010E94130AF801C6
:1014800001900020E9F73197E01BF10BE80FE13103
:101490000CF0E0E1C80FD11D87FDDA9590E0282F10
:1014A000290F2E172CF0DF91CF911F910F910895E6
:1014B000D801A90FB11D97FDBA952C9129939F5F73
:1014C000EECFFF920F931F93CF93DF93CDB7DEB78D
:1014D00061970FB6F894DEBF0FBECDBF8C01F42E1E
:1014E00041E150E0CE0101960E94CC11198A4F2DA6
:1014F000BE016F5F7F4FC8010E942B0A61960FB635
:10150000F894DEBF0FBECDBFDF91CF911F910F9139
:10151000FF900895FC018EE2858786878787108A71
:101520000895CF93C62F2A9895E09A95F1F7000079
:101530000E94C50D8C2F0E94C50D95E09A95F1F77C
:1015400000002A9ACF910895EF92FF920F931F9374
:10155000CF93DF938B01E42E2A9895E09A95F1F7CB
:1015600000000E94C50DE80110E000E00E2C000C08
:10157000FF080E151F0564F085E08A95F1F700005D
:101580002A9ADF91CF911F910F91FF90EF900895CC
:1015900089910E94C50D0F5F1F4FEBCF60E00C9447
:1015A000910AEF92FF920F931F93CF93DF938B01DA
:1015B000E42E2A9895E09A95F1F700000E94C50D57
:1015C000E80110E000E00E2C000CFF080E151F05CE
:1015D00064F085E08A95F1F700002A9ADF91CF91B7
:1015E0001F910F91FF90EF90089580E00E94C50D2C
:1015F00089930F5F1F4FEACF60E980E80E94910A4C
:1016000085E38A95F1F7000062E481E80E94910A7F
:1016100085E38A95F1F7000085E38A95F1F70000EC
:101620000895CF93DF9300D00F92CDB7DEB743E09C
:10163000BE016F5F7F4F8CE00E94D10A8981282F05
:1016400030E0322F22278A81807F820F932F911DD5
:1016500024E0969587952A95E1F70F900F900F90CB
:10166000DF91CF910895CF93DF9300D0CDB7DEB750
:1016700042E0BE016F5F7F4F8AE00E94D10A8981FC
:101680000F900F90DF91CF91089580935A020895A3
:1016900080935802089580935902089580915802CA
:1016A00008958091590208959093550280935402B1
:1016B00008959093570280935602089580915402A2
:1016C0009091550208958091560290915702089585
:1016D0008EE492E008958EE492E00C94AE11909125
:1016E0005302813059F08230D9F09091530297FF24
:1016F00035C010925302809153020895915097FD86
:101700000CC090935302E09153020E2E000CFF0B7D
:10171000E25BFD4F80E28083E8CF10925302F3CF6B
:1017200080915A0298170CF78150E82F082E000C70
:10173000FF0BE25BFD4F98175CF0E92F092E000CC0
:10174000FF0BE25BFD4F60839F5F90935302CDCF11
:10175000DF012E9120838150FD01EDCF80915A024F
:1017600089174CF680935302C6CFCF93DF93CEE414
:10177000D2E06C85CE010E94CB0D8C858D83DF91EC
:10178000CF9108950F931F93CF93DF93CDB7DEB71B
:101790002F970FB6F894DEBF0FBECDBF9C0180918E
:1017A0005402909155028217930744F0809156029B
:1017B00090915702821793070CF4C9014AE08E01F9
:1017C0000F5F1F4FB8010E94F111F8010190002036
:1017D000E9F73197E01BF10B80915A02282F082E70
:1017E000000C330BE217F30724F0F801E80FF11DAA
:1017F0001082B8018EE492E00E94DB110E94B50BCA
:101800002F960FB6F894DEBF0FBECDBFDF91CF91FC
:101810001F910F9108951F93CF93DF93182F0E946C
:101820004E0BC82F0E94510BD82F8CE00E946609E6
:101830006D2F8C2F0E94060A0E94680B0E94EC09F3
:101840006D2F8C2F810F0E94060A8FE0DF91CF91C0
:101850001F910C946609CF93DF93EC0119821882D3
:1018600080E00E947C07882321F081E3898382E065
:10187000888381E00E947C07882321F082E38983AA
:1018800082E0888382E00E947C07882321F083E342
:10189000898382E0888384E00E947C07882321F08A
:1018A00084E3898382E0888385E00E947C07882323
:1018B00021F085E3898382E0888386E00E947C07AB
:1018C000882321F086E3898382E0888388E00E9470
:1018D0007C07882321F087E3898382E0888389E07D
:1018E0000E947C07882321F088E3898382E0888333
:1018F0008AE00E947C07882321F089E3898382E0C3
:1019000088838DE00E947C07882321F080E389830F
:1019100082E088838FE00E947C07882341F085E481
:1019200089830E946B0B0E94C20B0E940B0C8CE0FF
:101930000E947C07882311F081E088838881181633
:101940003CF469810E946F0BDF91CF910C940B0CDA
:10195000DF91CF91089590935C0280935B0208958C
:1019600080915B0290915C020895EBE5F2E01786AE
:101970001686118A108A08950E94B50CEBE5F2E0F4
:1019800080E090E0A0EAB0E482839383A483B583EF
:1019900086839783A087B18780E090E0A0E4B0E4DD
:1019A00082879387A487B5870895CF92DF92EF92BD
:1019B000FF920F931F93CF93DF93C0915B02D0915F
:1019C0005C02C81BD90B2091690230916A022C0F6E
:1019D0003D1F30936A0220936902CA31D1050CF091
:1019E0008EC0CB30D1050CF48CC0813591050CF044
:1019F0008AC08D3391050CF47EC087EC90E001978E
:101A0000F1F700C0000085E02091690230916A0280
:101A1000082E000C990B821793070CF078C0909356
:101A20006A028093690280916B0290916C028E0130
:101A3000081B190B10936E0200936D02D0936C0279
:101A4000C0936B026091690270916A02072E000CCC
:101A5000880B990B0E948C102091610230916202D8
:101A600040916302509164020E9441116B017C011C
:101A7000BE01DD0F880B990B0E948C1020915D0236
:101A800030915E0240915F02509160020E944111CC
:101A90009B01AC01C701B6010E94710F6B017C0173
:101AA000B801110F880B990B0E948C1020916502D0
:101AB0003091660240916702509168020E94411184
:101AC0009B01AC01C701B6010E94710F0E94541026
:101AD00077FF02C070E060E0CB016536710514F05D
:101AE00084E690E0DF91CF911F910F91FF90EF90EE
:101AF000DF90CF900895899744F482E085CF82E308
:101B000083CF81E081CF8AE07FCF83E07DCF37FF35
:101B10008ACF10926A021092690285CF90913D019E
:101B20009F5F953018F490933D01089510923D0108
:101B300090910001913051F48823C1F0429A909124
:101B40003C019F5F981750F490933C0180913B01BA
:101B50008F5F843668F480933B01089510923C01B6
:101B6000843608F4429810920001F0CF4298EECFEC
:101B700010923B0181E08093000108952A9A84B17C
:101B80008C6284B98FE58CBD08958EBD0DB407FEBF
:101B9000FDCF8EB50895CF92DF92EF92FF921F9303
:101BA000CF93DF93CDB7DEB72F970FB6F894DEBF94
:101BB0000FBECDBF7C01162F0E94AE114AE09E01E0
:101BC0002F5F3F4F6901B9010E94F111F6010190A9
:101BD0000020E9F73197EC19FD091E1BB601C7017A
:101BE000810F911D17FD9A950E94DB116FEF610F18
:101BF000062E000C770B80E267FF0EC02F960FB603
:101C0000F894DEBF0FBECDBFDF91CF911F91FF9043
:101C1000EF90DF90CF900895F701E60FF71F8083D4
:101C200061507109E9CF9093C5008093C40088E9A1
:101C30008093C10086E08093C20008959091C00017
:101C400095FFFCCF8093C60008958091C00087FF68
:101C5000FCCF8091C60008958F938091C6008F912C
:101C60001895CF93DF93EC018991811103C0DF9127
:101C7000CF9108950E941E0EF7CF0E94310E8AE088
:101C80000C941E0ECF93DF93EC01FE018491882308
:101C900021F00E941E0E2196F8CFDF91CF9108957A
:101CA0000E94420E8AE00C941E0E0E946C038091EA
:101CB0002F0180FF0AC080912F018E7F80932F011A
:101CC00080912D01816080932D0180912D0180FFF5
:101CD0000FC00E94AA00892B29F080912D0183FD5D
:101CE0000E94F5020E94A7030E94CD030E94F808FB
:101CF00080913A01811195C08EE00E947C07882373
:101D0000B9F080912D01877F80932D0181E00E94A1
:101D100066098FE39FE10197F1F700C000000E9480
:101D200018040E94F40380913A018F5F80933A0176
:101D300080912D0182FF87C080912D018B7F809340
:101D40002D010E9456031092390180912D0182606D
:101D500080932D0180912D0181FF0FC080912D0175
:101D60008D7F80932D0181E080932C010E9455028C
:101D700080912D0183FD0E94CA0280912C0188234D
:101D800009F447C00E941F028F7029F080912D0135
:101D900083FD0E94CA0220913F0130914001809151
:101DA0004B0190914C01281739079CF1439A8FE918
:101DB0009FE00197F1F700C000000E94550280915A
:101DC0002D0183FF0DC00E94CA028DE80E946609A2
:101DD00095E39A95F1F7000084EB90E00E94F809F2
:101DE00080912D01806180932D016091430170915C
:101DF000440180914501909146010E945410CB010D
:101E00000E94D50C80932E01809139018F5F8093C1
:101E1000390180912D018E7F80932D010E94FC0855
:101E200046CF813009F084CF0E943C04882309F416
:101E30007FCF10923A0180912D01886080932D010F
:101E40000E94F50275CF80913901882309F482CF71
:101E500080912D0180FFDDCF809147019091480155
:101E60000196843F21E0920728F4909348018093E3
:101E70004701CFCF10924801109247016091430172
:101E80007091440180914501909146010E94541047
:101E9000CB010E94D50C80932E01BBCFA1E21A2E5C
:101EA000AA1BBB1BFD010DC0AA1FBB1FEE1FFF1FFE
:101EB000A217B307E407F50720F0A21BB30BE40B4E
:101EC000F50B661F771F881F991F1A9469F7609595
:101ED0007095809590959B01AC01BD01CF0108954F
:101EE0005058BB27AA270E94880F0C9402110E9409
:101EF000F41038F00E94FB1020F039F49F3F19F4E1
:101F000026F40C94F1100EF4E095E7FB0C94EB1022
:101F1000E92F0E94131158F3BA1762077307840759
:101F2000950720F079F4A6F50C9435110EF4E095A0
:101F30000B2EBA2FA02D0B01B90190010C01CA0183
:101F4000A0011124FF27591B99F0593F50F4503E2E
:101F500068F11A16F040A22F232F342F4427585F20
:101F6000F3CF469537952795A795F0405395C9F738
:101F70007EF41F16BA0B620B730B840BBAF09150F0
:101F8000A1F0FF0FBB1F661F771F881FC2F70EC08F
:101F9000BA0F621F731F841F48F487957795679562
:101FA000B795F7959E3F08F0B0CF9395880F08F04E
:101FB0009927EE0F9795879508950E94C71008F40A
:101FC00081E008950E94F60F0C9402110E94FB100C
:101FD00058F00E94F41040F029F45F3F29F00C946F
:101FE000EB1051110C9436110C94F1100E94131146
:101FF00068F39923B1F3552391F3951B550BBB2738
:10200000AA2762177307840738F09F5F5F4F220F7C
:10201000331F441FAA1FA9F335D00E2E3AF0E0E873
:1020200032D091505040E695001CCAF72BD0FE2FBD
:1020300029D0660F771F881FBB1F26173707480751
:10204000AB07B0E809F0BB0B802DBF01FF27935809
:102050005F4F3AF09E3F510578F00C94EB100C94D2
:1020600036115F3FE4F3983ED4F3869577956795F4
:10207000B795F7959F5FC9F7880F911D969587953E
:1020800097F90895E1E0660F771F881FBB1F62175D
:1020900073078407BA0720F0621B730B840BBA0B1B
:1020A000EE1F88F7E09508950E945B106894B111C7
:1020B0000C94361108950E941B1188F09F5798F0D8
:1020C000B92F9927B751B0F0E1F0660F771F881F3D
:1020D000991F1AF0BA95C9F714C0B13091F00E9457
:1020E0003511B1E008950C943511672F782F8827AA
:1020F000B85F39F0B93FCCF3869577956795B3957E
:10210000D9F73EF490958095709561957F4F8F4FEC
:102110009F4F0895E89409C097FB3EF490958095F1
:10212000709561957F4F8F4F9F4F9923A9F0F92F9D
:1021300096E9BB279395F695879577956795B7951B
:10214000F111F8CFFAF4BB0F11F460FF1BC06F5F01
:102150007F4F8F4F9F4F16C0882311F096E911C013
:10216000772321F09EE8872F762F05C0662371F034
:1021700096E8862F70E060E02AF09A95660F771F48
:10218000881FDAF7880F9695879597F90895990F24
:102190000008550FAA0BE0E8FEEF16161706E80731
:1021A000F907C0F012161306E407F50798F0621B52
:1021B000730B840B950B39F40A2661F0232B242B27
:1021C000252B21F408950A2609F4A140A6958FEF46
:1021D000811D811D089597F99F6780E870E060E098
:1021E00008959FEF80EC089500240A9416161706B0
:1021F00018060906089500240A94121613061406F8
:1022000005060895092E0394000C11F4882352F05A
:10221000BB0F40F4BF2B11F460FF04C06F5F7F4F12
:102220008F4F9F4F089557FD9058440F551F59F0F9
:102230005F3F71F04795880F97FB991F61F09F3FB3
:1022400079F087950895121613061406551FF2CFDC
:102250004695F1DF08C0161617061806991FF1CF2C
:1022600086957105610508940895E894BB27662753
:102270007727CB0197F908950E94C71008F48FEFD4
:1022800008950E9454110C9402110E94F41038F029
:102290000E94FB1020F0952311F00C94EB100C948D
:1022A000F11011240C9436110E94131170F3959FB4
:1022B000C1F3950F50E0551F629FF001729FBB273D
:1022C000F00DB11D639FAA27F00DB11DAA1F649FD9
:1022D0006627B00DA11D661F829F2227B00DA11D8C
:1022E000621F739FB00DA11D621F839FA00D611D12
:1022F000221F749F3327A00D611D231F849F600D33
:10230000211D822F762F6A2F11249F5750409AF05B
:10231000F1F088234AF0EE0FFF1FBB1F661F771FE7
:10232000881F91505040A9F79E3F510580F00C94B2
:10233000EB100C9436115F3FE4F3983ED4F386958E
:1023400077956795B795F795E7959F5FC1F7FE2B52
:10235000880F911D9695879597F90895FC01882718
:102360009927E89421912032E9F3293010F02E309A
:10237000C8F32B3241F02D3239F4689404C00E9426
:10238000FC11820F911D219120532A30C0F31EF4BD
:10239000909581959F4F0895FB01DC01415050407D
:1023A00048F005900D920020C9F701C01D924150E0
:1023B0005040E0F70895FB01DC0101900D920020F0
:1023C000E1F70895FB01DC014150504048F00190D5
:1023D0000D920020C9F701C01D9241505040E0F716
:1023E0000895BB274A3031F4992322F4BDE2909539
:1023F00081959F4F0C9405127AE0979F902D879FAF
:10240000802D910D11240895BB27FB015527AA2784
:10241000880F991FAA1FA41710F0A41B8395505171
:10242000B9F7A05DAA3308F0A95DA193009779F7E9
:10243000B111B1931192CB010C941E12DC01FC017D
:10244000672F71917723E1F7329704C07C916D93E8
:1024500070836291AE17BF07C8F30895DC01CB010A
:10246000FC01F999FECF06C0F2BDE1BDF89A3196A4
:1024700000B40D9241505040B8F70895DC01A40F0C
:10248000B51F4150504048F0CB01840F951F2E914D
:102490000E944F1241505040D0F70895262FF999CD
:1024A000FECF92BD81BDF89A019700B4021639F0B3
:1024B0001FBA20BD0FB6F894FA9AF99A0FBE089584
:0424C000F894FFCFBE
:1024C4000166766E402E46E9C381952340C14F4094
:1024D40043CBC1953F1900FA00FAFEC742931A5A3A
:0C24E40038202020002020203A3020006A
:00000001FF
